:100000000C9410020C942D020C942D020C942D02D1
:100010000C942D020C942D020C942D020C942D02A4
:100020000C942D020C942D020C942D020C942D0294
:100030000C942D020C942D020C942D020C942D0284
:100040000C942D020C942D020C942D020C942D0274
:100050000C942D020C942D020C942D020C942D0264
:100060000C942D020C942D020C942D020C942D0254
:100070000C942D020C942D020C942D020C942D0244
:100080000C942D020C942D020C942D020C942D0234
:100090000C942D020C942D020C942D020C942D0224
:1000A0000C942D020C942D020C942D020C942D0214
:1000B0000C942D020C942D020C942D020C942D0204
:1000C0000C942D020C942D020C942D020C942D02F4
:1000D0000C942D020C942D020C942D020C942D02E4
:1000E0000C942D020C942D020C942D020C942D02D4
:1000F0000C942D020C942D020C942D020C942D02C4
:100100000C94AF050C94DC050C942D020C942D027C
:100110000C942D020C942D020C942D020C9462056B
:100120000C947A050C942D020C942D020C942D0243
:100130000C942D020C942D020C942D020C942D0283
:100140000C942D020C942D020C942D020C942D0273
:100150000C942D020C942D020C942D020C942D0263
:100160000C942D020C942D020C942D020C9400057D
:100170000C942D020C9430053E07480752075D078A
:10018000670771077B0785078F079907A307AD07E7
:10019000B707C107CB07D507DF07E907F307FD0757
:1001A0000C08170820082A082D0833577962726155
:1001B0006E792070727A796369736B205357330DAF
:1001C0000A003257796272616E792070727A7963AF
:1001D00069736B205357320D0A00456B72616E20B4
:1001E0007779637A79737A637A6F6E790D0A00543E
:1001F000656B7374207779736C616E790D0A0057A3
:100200007973776965746C61637A2077796C61635F
:100210007A6F6E790D0A005573746177696F6E6F2E
:1002200020460D0A005573746177696F6E6F204523
:100230000D0A005573746177696F6E6F20440D0A63
:10024000005573746177696F6E6F20430D0A005516
:1002500073746177696F6E6F20420D0A0055737475
:100260006177696F6E6F20410D0A00557374617775
:10027000696F6E6F20390D0A005573746177696F6D
:100280006E6F20380D0A005573746177696F6E6F59
:1002900020370D0A005573746177696F6E6F2036D1
:1002A0000D0A005573746177696F6E6F20350D0A02
:1002B000005573746177696F6E6F20340D0A0055B5
:1002C00073746177696F6E6F20330D0A0055737414
:1002D0006177696F6E6F20320D0A00557374617714
:1002E000696F6E6F20310D0A005573746177696F05
:1002F0006E6F20300D0A005573746177696F6E6FF1
:100300002062616A74206E61204C45440D0A0041F0
:100310004C4C204C4544204F46460D0A00414C4C65
:10032000204C4544204F4E0D0A00315779627261CE
:100330006E792070727A796369736B205357310D2F
:100340000A003057796272616E792070727A79632F
:1003500069736B205357300D0A00190412040E0400
:1003600008040204FC03F603F003EA03E403DE03DB
:10037000D803D203CC03C603C003BA03B403AE034D
:10038000A803A3039A03960391038C03504F54329E
:1003900000504F54310044495000434C4541524CA9
:1003A000434400544558540037534547520037538F
:1003B00045474600375345474500375345474400B6
:1003C0003753454743003753454742003753454766
:1003D00041003753454739003753454738003753B5
:1003E00045473700375345473600375345473500B3
:1003F0003753454734003753454733003753454754
:1004000032003753454731003753454730004C459C
:1004100044004C45444F4646004C45444F4E000076
:1004200011241FBECFEFCDBFDFE2DEBF10E2A0E0A0
:10043000B0E2E4E9F2E102C005900D92A031B1070B
:10044000D9F720E2A0E1B0E201C01D92AD36B207BB
:10045000E1F70E94CB080C9448090C94000081310C
:10046000910510F080E190E040EA5FE0849F900108
:10047000859F300D949F300D1124C9010197F1F72C
:1004800008957F928F929F92AF92BF92CF92DF9208
:10049000EF92FF920F931F93CF93DF930F2EF4E40D
:1004A000CF2EF6E0DF2EF02DF60110820F2EF5E0B4
:1004B000EF2EF6E0FF2EF02DC0E1F701C08306E03D
:1004C00016E0F801C08380E190E00E942F020F2E19
:1004D000F0E37F2EF02DF6017082F701C083F80162
:1004E000C0830F2EF5E48F2EF6E09F2EF02DD8E07E
:1004F000F401D083F701C083F801C08381E090E06C
:100500000E942F020F2EF6E4AF2EF6E0BF2EF02D44
:10051000F501D083F701C083F801C08385E090E046
:100520000E942F02F6017082F701C083F801C08398
:10053000F401D083F701C083F801C08381E090E02B
:100540000E942F02F501D083F701C083F801C08318
:1005500081E090E00E942F02F6017082F701C083D3
:10056000F801C083F401D083F701C083F801C08390
:1005700081E090E00E942F02F501D083F701C08353
:10058000F801C08381E090E00E942F0268947724F4
:1005900075F8F6017082F701C083F801C083F40199
:1005A000D083F701C083F801C08381E090E00E940E
:1005B0002F02F501D083F701C083F801C08381E0E9
:1005C00090E00E942F02F6017082F701C083F801CB
:1005D000C083F401D083F701C083F801C08381E0B8
:1005E00090E00E942F02F501D083F701C083F8014B
:1005F000C08381E090E00E942F026894772477F80E
:10060000F6017082F701C083F801C083F401D08342
:10061000F701C083F801C08381E090E00E942F02BF
:10062000F501D083F701C083F801C08381E090E039
:100630000E942F02F6011082F701C083F801C083E7
:10064000F401D083F701C083F801C08381E090E01A
:100650000E942F02F501D083F701C083F801C08307
:1006600081E090E00E942F02F6017082F701C083C2
:10067000F801C083F401D083F701C083F801C0837F
:1006800081E090E00E942F02F501D083F701C08342
:10069000F801C08381E090E00E942F02F6011082F1
:1006A000F701C083F801C083F401D083F701C08350
:1006B000F801C08381E090E00E942F02F501D08311
:1006C000F701C083F801C08381E090E00E942F020F
:1006D000F601C083F701C083F801C083F401D08321
:1006E000F701C083F801C08381E090E00E942F02EF
:1006F000F501D083F701C083F801C08381E090E069
:100700000E942F02F6011082F701C083F801C08316
:10071000F401D083F701C083F801C08381E090E049
:100720000E942F02F501D083F701C083F801C08336
:1007300081E090E00E942F0280E6F6018083F701BD
:10074000C083F801C083F401D083F701C083F801AE
:10075000C08381E090E00E942F02F501D083F70171
:10076000C083F801C08381E090E00E942F02F6016F
:100770001082F701C083F801C083F401D083F70130
:10078000C083F801C08381E090E00E942F02F50150
:10079000D083F701C083F801C08381E090E00E941C
:1007A0002F0280EFF6018083F701C083F801C08338
:1007B000F401D083F701C083F801C08381E090E0A9
:1007C0000E942F02F501D083F701C083F801C08396
:1007D00081E090E00E942F02DF91CF911F910F9155
:1007E000FF90EF90DF90CF90BF90AF909F908F9051
:1007F0007F9008957F928F929F92AF92BF92CF92F7
:10080000DF92EF92FF920F931F93CF93DF93D82F36
:10081000807F82600F2EF4E48F2EF6E09F2EF02D65
:10082000F40180830F2EF5E0EF2EF6E0FF2EF02D81
:10083000C0E1F701C08306E016E0F801C0830F2E87
:10084000F5E4AF2EF6E0BF2EF02D6894772473F810
:10085000F5017082F701C083F801C08381E090E068
:100860000E942F020F2EF6E4CF2EF6E0DF2EF02DA1
:10087000F6017082F701C083F801C08381E090E047
:100880000E942F02F0E1DF9FC00111248260F40179
:100890008083F701C083F801C083F5017082F701FE
:1008A000C083F801C08381E090E00E942F02F6012E
:1008B0007082F701C083F801C08381E090E00E945C
:1008C0002F02DF91CF911F910F91FF90EF90DF905A
:1008D000CF90BF90AF909F908F907F9008957F9220
:1008E0008F929F92AF92BF92CF92DF92EF92FF9240
:1008F0000F931F93CF93DF93782E807F0F2EF4E416
:100900008F2EF6E09F2EF02DF40180830F2EF5E060
:10091000EF2EF6E0FF2EF02DC0E1F701C08306E0D8
:1009200016E0F801C0830F2EF5E4AF2EF6E0BF2EDF
:10093000F02DD8E0F501D083F701C083F801C08322
:1009400081E090E00E942F020F2EF6E4CF2EF6E019
:10095000DF2EF02DF601D083F701C083F801C083AC
:1009600081E090E00E942F02F0E17F9EC0011124FF
:10097000F4018083F701C083F801C083F501D083BF
:10098000F701C083F801C08381E090E00E942F024C
:10099000F601D083F701C083F801C08381E090E0C5
:1009A0000E942F02DF91CF911F910F91FF90EF9046
:1009B000DF90CF90BF90AF909F908F907F900895E1
:1009C00081E00E946F040895613039F028F06230B0
:1009D00041F0633049F00CC00BC090E0805C9F4F49
:1009E00007C090E0449604C090E08C5A9F4F00C02E
:1009F00080680E946F0408958CE00E946F0408953F
:100A00001F920F920FB60F9211242F933F934F9383
:100A10005F936F937F938F939F93AF93BF93EF9366
:100A2000FF936091B0096A3031F4809110208F5F9C
:100A30008093102060E08CE390E20E94D708FF9141
:100A4000EF91BF91AF919F918F917F916F915F9146
:100A50004F913F912F910F900FBE0F901F901895BF
:100A60001F920F920FB60F9211242F933F934F9323
:100A70005F936F937F938F939F93AF93BF93EF9306
:100A8000FF9380911320882351F082E190E20E942D
:100A9000F6088093B00981E08093112002C0109283
:100AA0001120FF91EF91BF91AF919F918F917F9115
:100AB0006F915F914F913F912F910F900FBE0F90CB
:100AC0001F9018951F920F920FB60F9211248F93BB
:100AD0009F93809110029091110290936820109240
:100AE0006920909367209F918F910F900FBE0F9078
:100AF0001F9018951F920F920FB60F9211248F938B
:100B00009F9380911202909113029093682010920B
:100B1000692090936C209F918F910F900FBE0F9042
:100B20001F901895CF93DF93EB012196FB01649101
:100B3000662349F082E190E20E94D708FE016491A9
:100B400021966111F7CFCFB7F894809111208111D0
:100B500002C00E943005CFBFDF91CF9108951F9250
:100B60000F920FB60F9211242F933F934F935F93E1
:100B70006F937F938F939F93AF93BF93EF93FF9365
:100B8000E8E6F6E0808180FFFDCF62E473E082E179
:100B900090E20E949205FF91EF91BF91AF919F91DA
:100BA0008F917F916F915F914F913F912F910F9016
:100BB0000FBE0F901F9018951F920F920FB60F92B5
:100BC00011242F933F934F935F936F937F938F9352
:100BD0009F93AF93BF93EF93FF93E8E6F6E0808196
:100BE00081FFFDCF6AE273E082E190E20E9492050C
:100BF000FF91EF91BF91AF919F918F917F916F91F5
:100C00005F914F913F912F910F900FBE0F901F90CA
:100C10001895FC01918195FFFDCF60830895EF92B7
:100C2000FF920F931F93CF9320913D202223C1F079
:100C30008C017C01C0E004C080913D20882391F0AC
:100C40008CE390E20E94F608803281F0F7018193F4
:100C50007F01882349F0CF5FCF3071F781E00BC06F
:100C600080E009C080E007C081E005C0F801EC0F1A
:100C7000F11D108281E0CF911F910F91FF90EF90B5
:100C80000895EF92FF921F93CF93DF93CDB7DEB716
:100C9000A897CDBFDEBF9FB7F8948091102088231E
:100CA00019F08150809310209FBF68E2CE01019619
:100CB0000E940F068823C1F00F2EFAE5EF2EF3E015
:100CC000FF2EF02D10E0F70165917491CE01019691
:100CD0000E943F09892B51F01F5F82E0E80EF11C52
:100CE000193189F789E103C08FEF01C0812FA896E0
:100CF000CDBFDEBFDF91CF911F91FF90EF900895A0
:100D0000FC0132E0B1E0AAEC3C93849130E03C93EA
:100D10000895F894E0E4F6E0108290E890930606D7
:100D2000A8E4B6E08C918C91909305069FEF908398
:100D3000789408958093440680E480930506809318
:100D4000060608951F93CF93DF9300D0CDB7DEB78B
:100D500080913D20882389F010E08CE390E20E948E
:100D6000F608E1E0F0E0EC0FFD1FE10FF11D8083DC
:100D70001F5F80913D208111F0CF89810F900F90EE
:100D8000DF91CF911F9108958F70E82FF0E0E05030
:100D9000F04E808180936A208093440680E28093A5
:100DA0000506809306060895EF92FF920F931F9316
:100DB000CF93DF93CDB7DEB7A097CDBFDEBF8091D5
:100DC0003D20882389F10FEE10E0E12EF12C8CE319
:100DD00090E20E94F608E1E0F0E0EC0FFD1FEE0D5E
:100DE000FF1D80838A3001F1113160F460E08FEFE4
:100DF000810F0E94E404FE01EE0DFF1D80810E9420
:100E0000FA030CC0003180F461E0802F0E94E404FA
:100E1000FE01EE0DFF1D80810E94FA031F5F0F5F30
:100E200080913D208111D1CFA096CDBFDEBFDF9153
:100E3000CF911F910F91FF90EF90089581E88093DB
:100E400020026091672080EB99E00E9409060895D6
:100E500081E88093280260916C2080EB99E00E94E9
:100E6000090608950E94410690E08931910508F035
:100E7000F6C0FC01E454FF4F0C9425096DE173E0CA
:100E800082E190E20E94920580E00E949A06089515
:100E90006FE073E082E190E20E9492058FEF0E9482
:100EA0009A06089567EF72E082E190E20E9492054F
:100EB0000E94A2060E949A06089569EE72E082E1FD
:100EC00090E20E94920580E00E94C40608956BEDB6
:100ED00072E082E190E20E94920581E00E94C406E5
:100EE00008956DEC72E082E190E20E94920582E04A
:100EF0000E94C40608956FEB72E082E190E20E94C6
:100F0000920583E00E94C406089561EB72E082E1DD
:100F100090E20E94920584E00E94C406089563EA6C
:100F200072E082E190E20E94920585E00E94C40690
:100F3000089565E972E082E190E20E94920586E000
:100F40000E94C406089567E872E082E190E20E9480
:100F5000920587E00E94C406089569E772E082E185
:100F600090E20E94920588E00E94C40608956BE614
:100F700072E082E190E20E94920589E00E94C4063C
:100F800008956DE572E082E190E20E9492058AE0A8
:100F90000E94C40608956FE472E082E190E20E942C
:100FA00092058BE00E94C406089561E472E082E13C
:100FB00090E20E9492058CE00E94C406089563E3CB
:100FC00072E082E190E20E9492058DE00E94C406E8
:100FD000089565E272E082E190E20E9492058EE05F
:100FE0000E94C406089567E172E082E190E20E94E7
:100FF00092058FE00E94C40608956FEF71E082E1D0
:1010000090E20E9492058FEF8093440680E28093E5
:1010100005068093060608956FEE71E082E190E286
:101020000E9492050E94E0040E94D40608956AED91
:1010300071E082E190E20E9492050E94E00408952E
:101040000E94890680936620682F80EB99E00E94B9
:10105000090608950E941E0708950E942807089512
:101060008091680682FD0BC0E8E6F6E0808182FF91
:10107000FDCF62EC71E082E190E20E94920508955A
:101080008091680683FD0BC0E8E6F6E0808183FF6F
:10109000FDCF6AEA71E082E190E20E949205089534
:1010A0001F93CF93DF938BEC80935200E0E5F0E049
:1010B000808188608083E1E5F0E0808183FFFDCF5F
:1010C00008ED33E0B0E0A0E404BF3C9382EF8093EE
:1010D0000006E5E0F6E090E890838CE0809320063F
:1010E0008FEF809340069093600610928006809365
:1010F000440680E480838093060687E68093B609E1
:101100001092B70984E18093B30983E08093B50915
:10111000D8E1D093B40985E080936906C1E0C0931B
:101120006A0612E010936B06C0937006C0937106B6
:10113000C093A20080E290E00E9480068093672026
:1011400080936C208091672090E080930C029093B4
:101150000D0286E08093010280E2809302021093E8
:101160000402C0932002C093280280E180932102F0
:10117000D0932902C0932202C0932A02C093000296
:101180000E9441020E94E0040E94FC047894DF91D6
:10119000CF911F9108950E945008809110208111D5
:1011A0000E9432070E9430080E944008F6CFCF9379
:1011B000FC01C62F4FB7F8942181283219F44FBF94
:1011C00080E012C03081822F90E0830F911D68E291
:1011D00070E00E941109DF01A80FB11D1296CC9397
:1011E0002F5F21834FBF81E0CF910895FC014FB75E
:1011F000F8942181211102C04FBF11C0808190E07D
:10120000DF01A80FB91F12963C91019668E270E0C9
:101210000E9411098083215021834FBF232F822FE9
:10122000089597FB072E16F4009407D077FD09D098
:101230000E942B0907FC05D03EF4909581959F4FA5
:101240000895709561957F4F0895EE0FFF1F0590EB
:10125000F491E02D0994AA1BBB1B51E107C0AA1F02
:10126000BB1FA617B70710F0A61BB70B881F991F47
:101270005A95A9F780959095BC01CD010895FB0181
:10128000DC018D91059080190110D9F3990B089517
:04129000F894FFCF00
:1012940021F51391C58909F10181410D2B150B4BE2
:00000001FF
